:020000040800F2
:1000000010120020CD010008D5010008D70100081A
:10001000D9010008DB010008DD0100080000000034
:10002000000000000000000000000000DF010008E8
:10003000E101000800000000E30100086514000869
:100040004F18000809100008E7010008E701000840
:10005000F9040008291100081D04000831040008F3
:100060003B040008450400084F040008E7010008AD
:10007000E7010008E7010008E7010008E7010008C0
:10008000E7010008E7010008E7010008E7010008B0
:10009000E70100089D030008A703000859040008B1
:1000A000E7010008E7010008E7010008DD14000887
:1000B000E7140008F1140008FB140008AF0F000853
:1000C000A50F0008C30F0008B90F0008F7120008B9
:1000D00001130008451600084F16000859160008BD
:1000E00027040008E7010008E7010008E70100080D
:1000F000E7010008E701000819150008E7010008FA
:1001000003050008ED120008051500080B13000890
:10011000311600083B160008E70100080F1500081B
:10012000E7010008E7010008E7010008E70100080F
:1001300000F002F800F03AF80AA090E8000C8244BF
:100140008344AAF10107DA4501D100F02FF8AFF29C
:10015000090EBAE80F0013F0010F18BFFB1A43F0A5
:10016000010318478C270000AC270000103A24BF79
:1001700078C878C1FAD8520724BF30C830C144BF0C
:1001800004680C607047000000230024002500264E
:10019000103A28BF78C1FBD8520728BF30C148BFEA
:1001A0000B6070471FB51FBD10B510BD00F071F892
:1001B0001146FFF7F7FF01F0C1FC00F0A3F803B40C
:1001C000FFF7F2FF03BC00F0A7F8000009488047E2
:1001D00009480047FEE7FEE7FEE7FEE7FEE7FEE729
:1001E000FEE7FEE7FEE7FEE704480549054A064B41
:1001F000704700007D14000831010008100C002039
:1002000010120020100E0020100E00200FB4044920
:1002100010B503AA029800F009F810BC5DF814FBB1
:10022000340000207047704770470000074B70B5DE
:100230000D467B4400F015F80446284600F024F8EB
:1002400010B14FF0FF3070BD204670BD6316000046
:1002500000487047AC0B002001694A1C0261087815
:10026000704700B58FB0CDE90131002105910549F6
:100270007944CDE903101146684600F02FF80FB01D
:1002800000BD0000E5FFFFFF007B00F0800070472D
:1002900070477546FFF7DCFFAE46050069465346DA
:1002A00020F00700854618B020B5FFF79DFFBDE898
:1002B00020404FF000064FF000074FF000084FF0CD
:1002C000000B21F00701AC46ACE8C009ACE8C0095E
:1002D000ACE8C009ACE8C0098D4670472DE9F04193
:1002E00006460024D6E90170F5688046304603E0F2
:1002F0004146B847641C3046A8470028F8D120463C
:10030000BDE8F08110B50446AFF300802046BDE89B
:100310001040FFF754BF000001491820ABBEFEE7B4
:100320002600020070B50646002400BF12E01948FE
:1003300050F8240000EB8000174901EB8000406872
:1003400006EB8601144A02EB81014968884200D914
:1003500004E0641C0F48006DA042E8DA00BF0D48BD
:10036000056D07E00B4850F825100246681C42F85E
:1003700020106D1EA542F5DA064840F82460006D95
:10038000401C044908650846006D08B900F096FD58
:1003900070BD0000580B0020C809002010B51520C2
:1003A00000F02CFC10BD10B5162000F027FC10BD8D
:1003B0002DE9F0410646174850F8267007EB8700F4
:1003C000154901EB8005344606E01249601C51F8DE
:1003D000200041F82400641C0E48006DA042F4DCAB
:1003E0000C48006D401E0B490865286930B128692A
:1003F000401C68603846FFF795FF02E04FF0FF3081
:1004000028600448006D401C08B900F04FFDBDE8AD
:10041000F0810000580B0020C809002010B506200C
:1004200000F0ECFB10BD10B5282000F0E7FB10BD7C
:1004300010B5072000F0E2FB10BD10B5082000F059
:10044000DDFB10BD10B5092000F0D8FB10BD10B5C4
:100450000A2000F0D3FB10BD10B5172000F0CEFB32
:1004600010BD0000002123498279002A3AD00A46B3
:10047000126803689A430B461A600A1D12680368E3
:100480009A430B1D1A60027911440A6803681A43E3
:100490000A60184A0832126803689A43154B0833F9
:1004A0001A601A1D126803689A43124B0C331A60C3
:1004B0004279102A0ED11A1F126803681A430D4B95
:1004C00008331A601A1D126803681A43094B0C336B
:1004D0001A600DE00749427911440A6803681A431B
:1004E0000A6005E0027911440A6803689A430A60C9
:1004F000704700000004014010B5042000F07EFBAE
:1005000010BD10B5302000F079FB10BD70B590B073
:1005100004466A4632210DA800F05CFE0DA9204673
:1005200000F00DF80DA800F010FE401E86B2314616
:100530000DA800F039FE0546284610B070BD70B514
:1005400004460D462188284600F0C7FEA1782846BB
:1005500000F0A2FEE178284600F09EFEE278211D20
:10056000284600F0A1FE284600F009FE0646314666
:10057000284600F091FE70BD73B58EB006460FABF5
:1005800001221146304600F01DF96946304600F060
:100590007FF8044644B99DF804509DF83C0085421C
:1005A00002D0072010B070BD2046FBE72DE9F74FC1
:1005B00090B0144601200F9011AB01220A2110982F
:1005C00000F000F901A9109800F062F88346BBF131
:1005D000000F1DD19DF808909DF84400814503D07F
:1005E000072013B0BDE8F08F9DF809109DF80A00B0
:1005F00041EA00200FFA80FA504601F0DBFE074680
:100600000022044B01F07EFD054601F049FD20600B
:100610005846E6E7000024402DE9F74F90B0144615
:1006200001200F9011AB01221021109800F0CAF8A0
:1006300001A9109800F02CF88346BBF1000F23D1DC
:100640009DF808909DF84400814503D0072013B021
:10065000BDE8F08F9DF809109DF80A0041EA0021DD
:100660009DF80B0041EA00419DF80C0041EA006A48
:10067000504601F09FFE07460022044B01F042FD68
:10068000054601F00DFD20605846E0E700002440DB
:100690002DE9F04105460C46002084F8370000277C
:1006A00000264FF0640885E0A86800F04EFD18B9F8
:1006B000012001F057FA7DE094F8370000F00800BF
:1006C000A8B1A86800F0E2FD04F8360F607840F0A9
:1006D00010006070363C2046FFF718FF94F8361083
:1006E000884202D00620BDE8F0810020FBE794F8A4
:1006F000370000F0040080B1A86800F0C7FD211D9C
:10070000C855781CC7B2E078B8424FD194F837008A
:1007100040F0080084F8370048E094F8370000F013
:10072000020078B1A86800F0B1FDE070E0782D28F3
:1007300001DD0520D7E794F8370040F0040084F885
:10074000370033E094F8370000F0010078B1A86872
:1007500000F09CFDA070A078112801DD0420C2E704
:1007600094F8370040F0020084F837001EE03EB9EC
:10077000A86800F08BFD0646052E17D0002615E070
:10078000052E12D1A86800F081FD46EA002641F648
:100790000540864201D0002608E0268094F8370004
:1007A00040F0010084F8370000E00026012001F04D
:1007B000D9F900BFB8F10000A8F101087FF474AFC7
:1007C000022090E72DE9F0418EB006460F4615460F
:1007D0009846002444F61240ADF800008DF80270EF
:1007E0008DF8035000BF04E018F8041001A801556B
:1007F000641CAC42F8DB68467168FFF7A0FE304627
:1008000001F00DF80EB0BDE8F08100002DE9F04FC9
:1008100087B006460F4614461D46DDE910894FF0A5
:10082000070B05AA072102A800F0D4FC1D492046A9
:1008300001F0B6FF01D21B4C05E01B49204601F038
:10084000AFFE00D2184C394602A800F025FD214623
:10085000164801F0D9FE019001F086FE0FFA80FAE9
:10086000514602A800F030FD294602A800F035FDEF
:10087000414602A800F031FD0DF1150307220821C1
:100880003046FFF79FFFB9F1000F08D00023224642
:100890003946304600F00CF807B0BDE8F08F002074
:1008A000FAE7000000003443000034C30000204198
:1008B0002DE9F84F81468A4615461E46002727E057
:1008C0002EB16A4651464846FFF7A6FE04E06A4646
:1008D00051464846FFF76AFE2846009901F092FF0C
:1008E000804628F0004400BF4FF07E51204601F0C2
:1008F00057FE02D80020BDE8F88F781C87B242F27C
:100900001070874201DB0120F5E7642001F02AF92D
:10091000D6E7000030B500228B071C0F0F2303FA27
:1009200004F20B4B8C1053F824309343084C8D1079
:1009300044F8253023468C1053F824308C07240FBC
:1009400000FA04F42343024C8D1044F8253030BDE6
:10095000080001402DE9F041024600250026002054
:1009600000230024002791F803C00CF00F0591F834
:1009700003C00CF0100CBCF1000F03D091F802C0C2
:100980004CEA050591F800C0BCF1000F31D01468A5
:1009900000202BE04FF0010C0CFA00F3B1F800C07E
:1009A0000CEA03069E4220D183004FF00F0C0CFA94
:1009B00003F7BC4305FA03FC4CEA040491F803C0B6
:1009C000BCF1280F06D14FF0010C0CFA00FCC2F864
:1009D00014C00AE091F803C0BCF1480F05D14FF0F4
:1009E000010C0CFA00FCC2F810C0401C0828D1D33E
:1009F0001460B1F800C0BCF1FF0F34DD5468002072
:100A00002EE000F1080C4FF0010808FA0CF3B1F8E1
:100A100000C00CEA03069E4221D183004FF00F0C68
:100A20000CFA03F7BC4305FA03FC4CEA040491F802
:100A300003C0BCF1280F05D100F1080C08FA0CF82E
:100A4000C2F8148091F803C0BCF1480F07D100F13F
:100A5000080C4FF0010808FA0CF8C2F81080401C8E
:100A60000828CED35460BDE8F0810000F0B50A46F6
:100A7000002300240021002500F00046B6F1004FBD
:100A800002D11D4EF16901E01B4E7168C0F30345B0
:100A900083B200F44016B6F5401F08D121F0706112
:100AA000154E766826F07066134F7E6012E000F4F3
:100AB0008016B6F5801F06D1032606FA05F4A14379
:100AC00041F0706106E0460D360103FA06F6B143C7
:100AD00041F0706122B1460D360103FA06F631434A
:100AE00000F00046B6F1004F02D1034EF16101E083
:100AF000014E7160F0BD0000000001400AB10161CB
:100B000000E04161704700002DE9FE4306460C46B7
:100B10001546304600F0E4FE81460121484600F0CB
:100B200089FA284600F096FF8DF80B00ADF80840D2
:100B300003208DF80A0002A93046FFF70BFF254875
:100B4000864208D1B4F5005F0CD0B4F5804F09D0CF
:100B5000B4F5004F06D0204886420BD1082C01D0B6
:100B6000102C07D10121084600F064FA01211B482E
:100B7000FFF77CFF05F4807028B905F0400010B93C
:100B800005F0800020B30121084600F053FA20460A
:100B900000F0DAFEC7B2304600F02AFF00F0FF088E
:100BA00039464046FFF7B6FE4FF4A06000F00EFA5B
:100BB000009401208DF8060000208DF804002846DE
:100BC00000F07CFE8DF805006846FFF74BFC00BF87
:100BD000BDE8FE8300080140000C01400004300025
:100BE00070B505460E4614460CB1012000E0002009
:100BF000024631462846FFF781FF70BD70B50446B6
:100C00005B2C06D2034850F824500348854200D09C
:100C1000A84770BD5C0800201D0C0008704700004C
:100C200010B5014648B200F01F0301229A40034B61
:100C3000440943F8242000BF10BD000080E100E01B
:100C4000014648B200F01F0301229A4043099B006D
:100C500003F1E023C3F8002100BF704770B54FF4E3
:100C6000A06000F0B3F9002418E01149204600F01C
:100C700025F82046FFF7D4FF60B20F21002807DADD
:100C80000A07160E0B4A00F00F031B1FD65403E091
:100C90000A07130E084A135400BF641C5B2CE4D3EC
:100CA00004480830056825F07F45056070BD0000E8
:100CB0001D0C000818ED00E000E400E05B2802D203
:100CC000014A42F8201070475C08002010B5FFF779
:100CD000C5FF00F001F810BD10B5002407E04FF08B
:100CE000FF3004EB8401064A42F82100641C142CF6
:100CF000F5DB4FF0FF300349086500F027F910BD20
:100D0000C8090020580B00202DE9F04385B00646A5
:100D1000884614461D46DDF830904D4886421FD166
:100D20000121042000F086F97015ADF810000320B1
:100D30008DF8120018208DF8130004A94548FFF71C
:100D400009FE3015ADF8100004208DF8130004A939
:100D50004048FFF7FFFD0121880300F06BF944E0F4
:100D60003D4886421FD10121042000F063F918207C
:100D70008DF813000420ADF8100003208DF8120048
:100D800004A93448FFF7E6FD0820ADF81000042060
:100D90008DF8130004A92F48FFF7DCFD012148045A
:100DA00000F038F921E02D4886421ED101210820AB
:100DB00000F040F918208DF813003015ADF8100040
:100DC00003208DF8120004A92548FFF7C3FD042075
:100DD0008DF813004002ADF8100004A92048FFF779
:100DE000B9FD0121880400F015F9082D00D114B1D6
:100DF000072D02D10CB1002707E0082D00D114B94E
:100E0000092D02D10CB94FF48057CDF80080ADF810
:100E100004701FFA89F0ADF80600A0B2ADF8080022
:100E20000C20ADF80A000020ADF80C0069463046F1
:100E300000F080FC012240F22551304600F054FCC5
:100E40000121304600F00DFC05B0BDE8F083000044
:100E500000380140000801400044004000480040C4
:100E6000000C01402DE9F04180460D461646002455
:100E700015E0002702E0012000F074FE202140462A
:100E800000F0FBFB18B9781C0746FF28F3DBFF2FA7
:100E900000DB06E0404600F0B9FC2855641CB44273
:100EA000E7DB00BF2046BDE8F081000010B500215F
:100EB000014800F045FB10BD0014004010B50121B1
:100EC000014800F03DFB10BD0014004070B5012149
:100ED0001B4800F041FB012830D1002426E01948CE
:100EE00050F8245005EB8500174901EB800040685D
:100EF000401E05EB8501144A02EB8101486005EBB9
:100F00008500114601EB8000406870B905EB850053
:100F100001EB8000866805EB850102EB8101C86862
:100F2000B0472046FFF744FA641E641C0548006D74
:100F3000A042D4DA0121024800F0FFFA70BD00009F
:100F400000140040580B0020C80900200EB50121F4
:100F5000202000F05FF811493720FFF7AFFE37205F
:100F6000FFF76EFE0020ADF802004FF47A70ADF886
:100F700004004720ADF800000020ADF806006946E7
:100F8000074800F003FB01221146054800F0F5FA7E
:100F90000121034800F0C5FA0EBD0000CD0E000887
:100FA0000014004010B52020FFF728FE10BD10B53A
:100FB0001F20FFF723FE10BD10B52220FFF71EFEF5
:100FC00010BD10B52120FFF719FE10BD02490143E5
:100FD000024A1160704700000000FA050CED00E0C5
:100FE00010B5002807DA0A07140E054A00F00F03AF
:100FF0001B1FD45403E00A07130E024A135410BDFA
:1010000018ED00E000E400E010B50120FFF7F6FD68
:1010100010BD000029B1064AD2690243044BDA61CF
:1010200004E0034AD2698243014BDA617047000051
:101030000010024029B1064A92690243044B9A61AA
:1010400004E0034A92698243014B9A6170470000B1
:101050000010024030B500210022002400232D4D55
:101060006D6805F00C0121B1042905D0082923D1B0
:1010700005E0294D056022E0274D05601FE0254D64
:101080006D6805F47012234D6D6805F480340225F7
:1010900005EB92421CB9214D554305600BE01D4DF7
:1010A0006D6805F400351DB11C4D5543056002E027
:1010B000194D5543056002E0174D056000BF00BFA4
:1010C000144D6D6805F0F0010909154D6B5C05685C
:1010D000DD4045600F4D6D6805F4E061090A104D73
:1010E0006B5C4568DD4085600A4D6D6805F46051B4
:1010F000C90A0B4D6B5C4568DD40C560054D6D68E8
:1011000005F44041890B074D6B5CC568B5FBF3F5F1
:10111000056130BD0010024000127A0000093D0058
:10112000000000201000002010B50520FFF766FD2C
:1011300010BD30B50446204600F01CF80546204698
:1011400000F003F8281A80B230BD00B5024690883E
:10115000D188884209DD104600F00CF89188D388C8
:10116000C91A491E401A80B200BDD0889188401A21
:1011700080B2F9E701460889401E80B27047F0B599
:10118000064600243046FFF7E0FF0746002500BF73
:1011900006E0A1B2304600F007F82844C5B2641C4E
:1011A000BC42F6DBE8B2F0BD70B504460D46204601
:1011B000FFF7CBFFA84201DC002070BDA0882844C7
:1011C000401C218990FBF1F201FB120086B22068DD
:1011D000805DF2E730B50B46002102600024848078
:1011E000C4805C1C048100BF04E0002405686C54CA
:1011F0004C1CA1B204898C42F7DC30BD10B504460A
:101200002046FFF796FF02462046FFF7B3FF8242D3
:1012100001D1012010BD0020FCE710B50446204696
:10122000FFF787FF08B9012010BD0020FCE730B5AB
:1012300004462046FFF7E2FF08B1002030BDA08839
:10124000401C218990FBF1F201FB1200A080A188D3
:101250002068455C0020A288216888542846EDE774
:1012600030B504460D462046FFF7D7FF10B12046A3
:10127000FFF7DDFFE088401C218990FBF1F201FBC4
:101280001200E080E1882068455430BD10B5044666
:101290002046FFF7CCFF10BD30B504460D46294669
:1012A0002046FFF7DDFF30BDF0B507460D46164678
:1012B000002400BF05E0295D3846FFF7D1FF601C20
:1012C00084B2B442F7DBF0BD33B5044601AD02226F
:1012D00029462046FFF7E8FF3CBD33B5044601AD83
:1012E000022229462046FFF7DFFF3CBD10B5312022
:1012F000FFF784FC10BD10B52320FFF77FFC10BD65
:1013000010B52420FFF77AFC10BD10B53320FFF78D
:1013100075FC10BD10B500F001F810BD0CB5002033
:10132000019000903348006840F4803031490860F3
:1013300000BF3048006800F4003000900198401C65
:101340000190009818B90198B0F5A06FF1D1294823
:10135000006800F4003010B10120009001E000208E
:1013600000900098012843D12348006840F0100005
:10137000214908600846006820F00300086008461C
:10138000006840F0020008601A4840681949486047
:101390000846406848600846406840F480604860FD
:1013A0000846406820F47C1048600846406840F4D5
:1013B000E81048600846006840F08070086000BF90
:1013C0000C48006800F000700028F9D00948406817
:1013D00020F00300074948600846406840F00200DA
:1013E000486000BF0348406800F00C000828F9D1AD
:1013F0000CBD0000001002400020024070B5054600
:101400000C46012D02D0022D0ED106E0A2B24FF4FF
:1014100080610648FFF7E4FB06E0A2B24FF40061EA
:101420000248FFF7DDFB00BF00BF70BD000C0140AC
:1014300010B50446B4F1807F01D3012010BD24F023
:101440007F40401E4FF0E02148610F214FF0FF30F8
:10145000FFF7C6FD00204FF0E021886107200861FA
:101460000020EBE70448006820B103480068401EF4
:1014700001490860704700002C00002010B5134897
:10148000006840F0010011490860084640681049B2
:1014900008400E494860084600680E4908400B495C
:1014A00008600846006820F480200860084640680C
:1014B00020F4FE0048604FF41F008860FFF72AFF09
:1014C0004FF000600449086010BD000000100240A9
:1014D0000000FFF8FFFFF6FE08ED00E010B51B204E
:1014E000FFF78CFB10BD10B51C20FFF787FB10BD6C
:1014F00010B51D20FFF782FB10BD10B51E20FFF7B1
:101500007DFB10BD10B53220FFF778FB10BD10B584
:101510003720FFF773FB10BD10B52E20FFF76EFBD1
:1015200010BD21B1028842F08002028004E00288EE
:101530004FF67F731A4002807047CA430282704799
:1015400021B1028842F00102028004E002884FF6D5
:10155000FE731A400280704730B502460020002317
:101560000024158A05EA0103958905EA010413B1EF
:101570000CB1012000E0002030BD1AB183890B437B
:10158000838102E083898B43838170470022028834
:101590001D4B98420ED01D4B98420BD0B0F1804F9E
:1015A00008D01B4B984205D01A4B984202D01A4BD8
:1015B000984204D14FF68F731A404B881A43174B49
:1015C000984207D0164B984204D04FF6FF431A407A
:1015D000CB881A4302808B8883850B8803850A4B4E
:1015E00098420BD0094B984208D00E4B984205D038
:1015F0000D4B984202D00D4B984201D10B7A0386D5
:101600000123838270470000002C01400034014018
:101610000004004000080040000C004000100040A2
:1016200000140040004001400044014000480140D7
:1016300010B53420FFF7E2FA10BD10B53520FFF7E2
:10164000DDFA10BD10B52520FFF7D8FA10BD10B592
:101650002620FFF7D3FA10BD10B52720FFF7CEFAEA
:1016600010BD21B1828942F40052828104E0828956
:101670004DF6FF731A408281704702460020B1F593
:10168000007F00D100BF13880B400BB1012000E0A8
:101690000020704770B5024600240023002500207A
:1016A00040F66A16B14200D100BFC1F3421501F005
:1016B0001F03012606FA03F3012D02D19689334058
:1016C00006E0022D02D1168A334001E0968A3340AB
:1016D0000C12012606FA04F41688344013B10CB13A
:1016E000012000E0002070BDF0B503460024002674
:1016F0000025002040F66A17B94200D100BF184605
:10170000C1F3421401F01F06012707FA06F5012C68
:1017100001D10C3004E0022C01D1103000E0143073
:101720001AB107682F43076002E00768AF430760FC
:10173000F0BD00002DE9F04786B005460E460024B6
:10174000A24600BFA1460027B08900B100BF2F46C6
:101750002C8A4CF6FF700440F08804432C82AC893C
:101760004EF6F3100440B08831890843718908436C
:101770000443AC81AC8A4FF6FF400440B089044377
:10178000AC8201A8FFF766FC1F48874202D1DDF852
:1017900010A001E0DDF80CA0A88900F4004040B1E1
:1017A0000AEBCA0000EB0A1031684900B0FBF1F8FF
:1017B00007E00AEBCA0000EB0A1031688900B0FBB1
:1017C000F1F86420B8FBF0F004012009642101FB6A
:1017D0001089A88900F4004040B1322000EBC90014
:1017E000B0FBF1F000F00700044308E0322000EB0A
:1017F00009106421B0FBF1F000F00F0004432C81CC
:1018000006B0BDE8F0870000003801400146888836
:10181000C0F308007047C1F308028280704770B5BA
:1018200004460EE06068FFF702FD05462946206881
:10183000FFF7F1FF00BF80212068FFF71EFF00289F
:10184000F9D06068FFF781FC0028EBD170BD10B5BE
:101850000020FFF7D3F910BD10B54FF4E13000F0D0
:10186000A5F915E001210B48FEF786FE80B902219B
:101870000848FEF781FE58B903210648FEF77CFEB2
:1018800030B904210348FEF777FE08B9012010BDE6
:10189000E8E700005008002070B504460D46A1B2EC
:1018A0000548FFF7B8FF00BF80210348FFF7E5FEBA
:1018B0000028F9D0204670BD0038014001460020C4
:1018C00001F480720AB1102008E001F040020AB170
:1018D000082003E001F0800202B10C2070470000F4
:1018E00001460020114A914201D104201CE0104A17
:1018F000914201D1082017E00E4A914201D11020F7
:1019000012E00D4A914201D120200DE00B4A914294
:1019100001D1402008E00A4A914201D1802003E031
:10192000084A914200D18815704700000008014024
:10193000000C01400010014000140140001801405B
:10194000001C01400020014001466F20B1F5807F5E
:101950003BD012DC102930D008DC012925D0022927
:1019600025D0042925D008293FD124E0202926D0DC
:10197000402926D0802938D125E0B1F5805F2CD0D0
:1019800009DCB1F5007F22D0B1F5806F21D0B1F52F
:10199000006F2AD11FE0B1F5005F20D0B1F5804F74
:1019A0001FD0B1F5004F20D11DE000201EE0012026
:1019B0001CE002201AE0032018E0042016E00520B5
:1019C00014E0062012E0072010E008200EE00920B5
:1019D0000CE00A200AE00B2008E00C2006E00D20B5
:1019E00004E00E2002E00F2000E000BF00BF7047BF
:1019F00001460020104A914200D11CE00F4A91425A
:101A000001D1012017E00E4A914201D1022012E0DB
:101A10000C4A914201D103200DE00B4A914201D1C1
:101A2000042008E0094A914201D1052003E0084A58
:101A3000914200D10620704700080140000C01408F
:101A4000001001400014014000180140001C01403A
:101A500000200140014601F001020AB1042017E014
:101A600001F008020AB1002012E001F002020AB1FE
:101A700048200DE001F004020AB1282008E001F03E
:101A800010020AB1102003E001F0200202B114207C
:101A9000102921D008DC012910D0022910D00429F6
:101AA00010D008291AD113E0202913D040290CD0D6
:101AB00080290BD0B1F5807F10D105E004200EE025
:101AC00048200CE028200AE000BF00BF482006E0C4
:101AD000002004E0142002E0102000E000BF00BF5E
:101AE0007047000010B5102291011348FFF70CF861
:101AF0001022D1011048FFF707F80222D1020E4848
:101B0000FFF702F8022211030B48FEF7FDFF022245
:101B100051030948FEF7F8FF022291030648FEF739
:101B2000F3FF012291020448FFF75AF80122D10283
:101B30000148FFF755F810BD000C0140FFF7D2FF38
:101B4000FFF7C4F8FFF788FE04464FF4165000F084
:101B500077F805E0012C03D100210120FFF74EFCAE
:101B6000F8E7000070B504460E4804600E480068AF
:101B70004FF47A71B0FBF1F52846FFF759FC0021CC
:101B8000481EFFF72DFA00BF064800680028FBD169
:101B90004FF0E020006920F001004FF0E0210861E3
:101BA00070BD00002C0000201400002038B5044651
:101BB000002008230246214600900F48FFF7A4F8B2
:101BC0000E492620FFF77AF82620FFF739F80A4851
:101BD0000B4908600B4A4FF4FA710B48FFF7FAFA09
:101BE0000A4A4FF4FA710A48FFF7F4FA0848044920
:101BF00088600548486038BD00440040151C000856
:101C0000500800204C040020380800204106002025
:101C10004408002010B540F225510748FFF73AFD6F
:101C200048B106490868FFF7F1FDC4B20349886866
:101C30002146FFF715FB10BD00440040500800206E
:101C400038B5044600200823024621460090054886
:101C5000FFF75AF804492520FFF730F82520FEF752
:101C6000EFFF38BD003801406D1C000810B588B08A
:101C7000012203A9F148FFF7F5F80446012C32D1FF
:101C80009DF80C0061282ED10120002140F2DC5388
:101C90000A46CDE900100146E948FEF7B7FD0120EC
:101CA000002140F2DC530A46CDE900100221E4484D
:101CB000FEF7ACFD0120002140F2DC53E14ACDE902
:101CC00000100321DE48FEF7A1FD0120002140F2B3
:101CD000DC53DD4ACDE900100421D948FEF796FD1A
:101CE000DAA0FEF793FA012C7ED19DF80C00622851
:101CF000FAD1DAA0FEF78AFADC480068092874D223
:101D0000DFE800F073052A4F7786AACFF50001209F
:101D100000214FF4FA73D64ACDE900100146C848B5
:101D2000FEF774FD012000214FF4FA730A46CDE955
:101D300000100421C248FEF769FD012000214FF484
:101D4000FA73CB4ACDE900100421BD48FEF75EFDD1
:101D50000520C6490860DAE0012000214FF4FA733B
:101D6000C34ACDE900100221B548FEF74FFD01201E
:101D700000214FF4FA730A46CDE900100421B0485F
:101D8000FEF744FD0120002140F2DC53B84ACDE9C2
:101D900000100421AA48FEF739FD0620B349086067
:101DA000B5E0012000214FF4FA73B24ACDE90010EA
:101DB0000321A348FEF72AFD012000214FF4FA7306
:101DC0000A46CDE9001004219D48FEF71FFD0120C1
:101DD00000214FF4FA73A64ACDE900100421984877
:101DE000FEF714FD072001E092E08FE09F490860B4
:101DF0008DE0012000214FF4FA730A46CDE900106E
:101E000004218F48FEF702FD0820984908607EE013
:101E1000012000214FF4FA730A46CDE90010014673
:101E20008748FEF7F3FC01209049086000214FF439
:101E3000FA730A46CDE9001004218148FEF7E6FC5A
:101E4000012000214FF4FA73894ACDE900100421E2
:101E50007B48FEF7DBFC5AE0012000214FF4FA73C7
:101E60000A46CDE9001002217548FEF7CFFC02209A
:101E70007E490860012000214FF4FA730A46CDE93B
:101E8000001004216E48FEF7C1FC0120002140F241
:101E9000DC53774ACDE9001004216948FEF7B6FC0F
:101EA00035E0012000214FF4FA73664ACDE90010B5
:101EB00003216348FEF7AAFC03206C490860012057
:101EC00000214FF4FA730A46CDE9001004215C4862
:101ED000FEF79CFC012000214FF4FA73644ACDE91F
:101EE000001004215648FEF791FC10E0FFE70120A6
:101EF00000214FF4FA735E4ACDE9001004215048E6
:101F0000FEF784FC04205949086000E000BF00BFD0
:101F1000012C41D19DF80C0063283DD15348006845
:101F2000401C5249086054A0FEF770F94F48006801
:101F3000012806D10021FFF761FA01210220FFF7F5
:101F40005DFA4A480068022807D101210846FFF7D8
:101F500055FA00210220FFF751FA4448006803288F
:101F600007D100210120FFF749FA00210220FFF7E5
:101F700045FA3E480068042807D101210846FFF7CA
:101F80003DFA01210220FFF739FA38480068052898
:101F900002D1012035490860012C4CD19DF80C007C
:101FA000642848D138A0FEF731F9012000214FF410
:101FB000FA732F4ACDE9001001462148FEF726FCAE
:101FC000012000214FF4FA73294ACDE900100221C3
:101FD0001B48FEF71BFC012000214FF4FA73254A31
:101FE000CDE9001003211648FEF710FC0120002166
:101FF0004FF4FA730A46CDE9001004211048FEF7A9
:1020000005FC40F2DC50FFF7ADFD012000214FF44C
:10201000FA73214ACDE9001001460948FEF7F6FBA4
:10202000012000214FF4FA731C4ACDE9001004216D
:102030000348FEF7EBFB08B010BD0000003801407C
:1020400050080020000038C200003442E888B5E69D
:102050009CBAE5A48DE4BD8D0A000000E888B5E6D1
:102060009CBAE8B083E8AF950A0000003800002071
:10207000000070420000C8C2E694B9E58F98E88875
:10208000B5E69CBA0A000000E888B5E69CBAE5907F
:10209000AFE58AA80A000000000070C20000A0415D
:1020A00021F00042A2F16052B2F5801F01F000431E
:1020B00028BFD2F17F6C0BD95FEA001C43EAC20251
:1020C00042EB507018BF704728BF20F001007047E6
:1020D000B2F5801FBCBF184670474FEA410C1CF593
:1020E000001F02D2084600F056BB70B500F079F927
:1020F00000000089FFF7F6BF4FF00040A0F5800018
:10210000704700002DE9C04130B4DFF8A0C23CEABE
:10211000111418BF3CEA131400F0EC8081EA0305A7
:102120001CEA111444EAD57418BF1CEA131500F018
:10213000C780A4EB05044FF0004545EAC12145EAFC
:10214000C32341EA505143EA525304F17F74994248
:1021500004F500344FEAC0204FEAC22208BF904283
:1021600000F09C804FEA13650FF24016765D4FEA4F
:10217000134506FB05F7C7F1807706FB07F74FEA23
:10218000D737A7FB03687642C8F58038A7FB06CE91
:1021900038BFA8F1010807FB08E64FF0000EA6FBC8
:1021A000028CE6FB03CEDCF1000CCEF1004E38BF12
:1021B000AEF1010EA6FB0C584FF000074FF00005E2
:1021C000E6FB0E87A1FB08C6A0FB07CE16EB0E06AA
:1021D00045F10005E1FB076515F1E04E7EBFA4F572
:1021E00080345FEA46066D4116F1800745F100052F
:1021F0004FEA17274FEA066647EA0567A6F1DE466B
:10220000B6F1805F4FEA15251FD9384624F0010C3E
:1022100005EBC471BCF1FE6F01EB0C1102D8F0BCF0
:10222000BDE8008124425CBF01F5801E9EEAC47FA8
:1022300002D4F0BCBDE80081244238D4F0BCA1F146
:10224000C041BDE8004100F01AB94FEAD22242EA8B
:1022500043524FEAD323A7FB02864FEAD02040EA3D
:10226000415007FB03661EEA0E0F4FEAD12105FB22
:10227000026658BFA6EB0056B6EB00564FEA520E68
:102280004EEAC37E18EB0E0E56EB530EBDD518EB7F
:1022900002085E417F1C55F10005B6E74FF480153A
:1022A0004FF000074FF000064FF00008ADE7F0BC1C
:1022B0004FF0000001F1C04101F00041BDE8008194
:1022C00011EA0C1F0CEA131500D00CE013EA0C1FE6
:1022D00000F025804FF00000F0BC81EA030101F01E
:1022E0000041BDE80081F0BCBDE8004181EA030186
:1022F00000F0C5B8F0BCBDE8004170B500F071F861
:10230000097EFC3E00F007B881EA03014FF00000AF
:1023100001F00041704781EA030100F0B0B8F0BC61
:10232000BDE800414FF0000021497047FFFDFBF977
:10233000F7F5F4F2F0EEEDEBE9E8E6E4E3E1E0DEF8
:10234000DDDBDAD8D7D5D4D3D1D0CFCDCCCBCAC86A
:10235000C7C6C5C4C2C1C0BFBEBDBCBBBAB9B8B791
:10236000B6B5B4B3B2B1B0AFAEADACABAAA9A8A884
:10237000A7A6A5A4A3A3A2A1A09F9F9E9D9C9C9B52
:102380009A999998979796959594939392919190FD
:102390008F8F8E8E8D8C8C8B8B8A8989888887878E
:1023A0008685858484838382828181800000FF0703
:1023B0000000F87F10F0004248BF4042B0FA80F3BE
:1023C00010FA03F10AD0C3F11D0303F580634FEA4D
:1023D000415002EB035202EBD12170474FF0000055
:1023E00070470EF1020E2EF0030E5EF8046B3642BB
:1023F00005D4012A43EB030515F5001F12D8012867
:1024000041EB010C1CF5001F0CD80ED14FEAD17C1A
:1024100015F5001F0CEB4C0C0CF1020C08BF4CEB3B
:10242000D37C04E04FF0080C01E04FEAD37C0CEBC6
:102430004C0526FA05F606F00706B6F1040C06D29E
:102440000EEB860CBDE870404CF0010C6047DFE8F5
:102450000CF0090B02024FF000414FF00000A1F513
:10246000002170BD19461046012851EB010418BF28
:10247000D4F5001484BF002001F0004170BD0808AD
:10248000A0F500114FEA31017047000090EA010FFA
:1024900048BF81F0004100F1BC81421A3CBF801A64
:1024A00089184FEAD0524FF07F4C1CEA410FA2EB43
:1024B000D15318BF9CEA026F00F03B804FF0004CF4
:1024C0004CEA00204CEA012121FA03FC10EB0C0C31
:1024D0001ED202F1FF325FEA1C2040EBC25038BF2F
:1024E00070471CF07F0F4FEA400C18BFBCF17F4FC4
:1024F00038BF7047C3F12003994008BF20F00100A6
:10250000BCF17F4F38BF7047A0F1C04000F043B925
:102510004FEA3C00000A40EBC25028BF1CF0FF0FFE
:102520004FEA400CE6D018BFBCF17F4F38BF704770
:10253000EAE79CEA026F05D010EA5C0F08BF00F0E2
:102540000040704710B500F0E0F800BF64FBBE3EED
:10255000401058BFC0F14040491058BFC1F1404140
:102560008142EFF30080704741000B0ED3F19E02D1
:1025700008D950F400034FEA032323FA02F048BFBE
:102580004042704710B500F0C0F800BF4992248067
:10259000002070476FF0004282EA20007047000080
:1025A00050EA010C00F113801CF5000F58BFBCF578
:1025B000000F01D48842704707D710F5000F58BFAD
:1025C00011F5000F15D488427047894270471CF5F9
:1025D000000F04D5BCF5000FF7D5814270474FF0CE
:1025E000807C1CEB400F38BF1CEB410F01D28142B5
:1025F000704710B500F089F8922449004FF0005060
:102600004FF08051FFF7A4BF4FF47F0C1CEAD012AB
:102610001EBF1CEAD11392EA0C0F93EA0C0F00F0D4
:10262000478090EA010F48BF42F480724FF0004C9F
:102630004CEA00204CEA012102EB0302A0FB01134B
:10264000A2F50002002918BF43F001035B0028BF78
:102650004FEA330342EB22425FEA132C4CEBC250A9
:102660002EBFBCEB436FB2F57C0F70474FEA036C93
:10267000BCF1004F08BF20F00100B2F57C0F38BF5D
:1026800070470BD582F0FF0212F5803FC8BF70473C
:1026900000F1C040D8BF00F00040704700F5000CCA
:1026A0005FEA4C0C48BF7047B0F1C04000F073B80F
:1026B00090EA010F0CEAD11348BF42F480726245E0
:1026C00038BF634504D280EA010000F00040704743
:1026D00010B500F01AF800BF8900013E00F007B8FD
:1026E00000F009B85FEA410C5FEA1C6C08D080EA90
:1026F000010000F050B85FEA400C5FEA1C6CF6D1B4
:102700004FF00040A0F5800070470EF1020E2EF051
:10271000030E5EF8044B244204D44FEA4102B2F1A6
:102720007F4F11D84FEA4003B3F17F4F0CD80ED141
:102730004FEAD07CB2F17F4F0CEB4C0C0CF1020C49
:1027400008BF4CEBD17C04E04FF0080C01E04FEAED
:10275000D17C0CEB4C0324FA03F404F00704B4F12D
:10276000040C06D20EEB840CBDE810404CF0010CBA
:102770006047DFE80CF0070802024FF00040A0F5C8
:10278000800010BD0846420018BFD2F1807288BF99
:1027900000F0004010BDFF2141EAD050C005704755
:1027A00051EA000C00F113801CF5000F58BFBCF576
:1027B000000F01D48142704707D711F5000F58BFB1
:1027C00010F5000F15D481427047894270471CF5FF
:1027D000000F04D5BCF5000FF7D5884270474FF0C5
:1027E000807C1CEB410F38BF1CEB400F01D28842AC
:1027F000704780EA010081EA000180EA0100FFF7EA
:10280000F8BE000090EA010F48BF81F000413FF59B
:1028100044AE421A04D882F00042A0EB02001144F8
:102820004FEAD0524FF07F4C1CEA410FA2EBD1533C
:1028300018BF9CEA026F4AD04FF0004C4CEA0020CF
:102840004CEA012121FA03FCB0EB0C0C0FD412F07E
:10285000FE0F36D05FEA4C001DD5001240EBC2508F
:1028600038BF70471CF03F0F18BF70470BE0A2F154
:1028700001025FEA1C2040EBC25038BF70471CF0D9
:102880007F0F18BF7047C3F12003994014BF401E4B
:1028900020F00100704780084FEA122308BF7047FC
:1028A000B0FA80FCA2EB0C02CCF1280C60FA0CF020
:1028B00093EA122F04BF00EBC25070474FEAC37077
:1028C0007047130A5FEADC1008BF7047F6E79CEA1E
:1028D000026F04D010EA5C0F08BF0020704710B5EB
:1028E000FFF713FF40DFF63E81F000407047000025
:1028F00010290008000000203C0000006C010008C6
:102900004C2900083C000020D41100008801000878
:102910000000000001020304010203040607080985
:102920000204060800A24A040000000000000000A3
:10293000010203040607080900000000000000006F
:0C2940000000000000000000000000008B
:0400000508000131BD
:00000001FF
